{
  "contractName": "BridgeBase",
  "abi": [
    {
      "inputs": [
        {
          "internalType": "address",
          "name": "_token",
          "type": "address"
        }
      ],
      "stateMutability": "nonpayable",
      "type": "constructor"
    },
    {
      "anonymous": false,
      "inputs": [
        {
          "indexed": false,
          "internalType": "address",
          "name": "from",
          "type": "address"
        },
        {
          "indexed": false,
          "internalType": "address",
          "name": "to",
          "type": "address"
        },
        {
          "indexed": false,
          "internalType": "uint256",
          "name": "amount",
          "type": "uint256"
        },
        {
          "indexed": false,
          "internalType": "uint256",
          "name": "date",
          "type": "uint256"
        },
        {
          "indexed": false,
          "internalType": "uint256",
          "name": "nonce",
          "type": "uint256"
        },
        {
          "indexed": false,
          "internalType": "bytes",
          "name": "signature",
          "type": "bytes"
        },
        {
          "indexed": true,
          "internalType": "enum BridgeBase.TransferStep",
          "name": "step",
          "type": "uint8"
        }
      ],
      "name": "TokenTransfer",
      "type": "event"
    },
    {
      "inputs": [],
      "name": "bridgetoken",
      "outputs": [
        {
          "internalType": "contract IToken",
          "name": "",
          "type": "address"
        }
      ],
      "stateMutability": "view",
      "type": "function"
    },
    {
      "inputs": [
        {
          "internalType": "address",
          "name": "",
          "type": "address"
        },
        {
          "internalType": "uint256",
          "name": "",
          "type": "uint256"
        }
      ],
      "name": "processedNonces",
      "outputs": [
        {
          "internalType": "bool",
          "name": "",
          "type": "bool"
        }
      ],
      "stateMutability": "view",
      "type": "function"
    },
    {
      "inputs": [
        {
          "internalType": "address",
          "name": "to",
          "type": "address"
        },
        {
          "internalType": "uint256",
          "name": "amount",
          "type": "uint256"
        },
        {
          "internalType": "uint256",
          "name": "nonce",
          "type": "uint256"
        },
        {
          "internalType": "bytes",
          "name": "signature",
          "type": "bytes"
        }
      ],
      "name": "tokenBurn",
      "outputs": [],
      "stateMutability": "nonpayable",
      "type": "function"
    },
    {
      "inputs": [
        {
          "internalType": "address",
          "name": "from",
          "type": "address"
        },
        {
          "internalType": "address",
          "name": "to",
          "type": "address"
        },
        {
          "internalType": "uint256",
          "name": "amount",
          "type": "uint256"
        },
        {
          "internalType": "uint256",
          "name": "nonce",
          "type": "uint256"
        },
        {
          "internalType": "bytes",
          "name": "signature",
          "type": "bytes"
        }
      ],
      "name": "tokenMint",
      "outputs": [],
      "stateMutability": "nonpayable",
      "type": "function"
    }
  ],
  "bytecode": "0x608060405234801561001057600080fd5b50604051610f4d380380610f4d833981810160405281019061003291906100db565b806000806101000a81548173ffffffffffffffffffffffffffffffffffffffff021916908373ffffffffffffffffffffffffffffffffffffffff16021790555050610108565b600080fd5b600073ffffffffffffffffffffffffffffffffffffffff82169050919050565b60006100a88261007d565b9050919050565b6100b88161009d565b81146100c357600080fd5b50565b6000815190506100d5816100af565b92915050565b6000602082840312156100f1576100f0610078565b5b60006100ff848285016100c6565b91505092915050565b610e36806101176000396000f3fe608060405234801561001057600080fd5b506004361061004c5760003560e01c806369e7d199146100515780637cc702401461006f578063da03497c1461009f578063e974da3f146100bb575b600080fd5b6100596100d7565b6040516100669190610774565b60405180910390f35b6100896004803603810190610084919061080d565b6100fb565b6040516100969190610868565b60405180910390f35b6100b960048036038101906100b491906108e8565b61012a565b005b6100d560048036038101906100d09190610982565b610416565b005b60008054906101000a900473ffffffffffffffffffffffffffffffffffffffff1681565b60016020528160005260406000206020528060005260406000206000915091509054906101000a900460ff1681565b6000610161878787876040516020016101469493929190610a73565b6040516020818303038152906040528051906020012061060d565b90508673ffffffffffffffffffffffffffffffffffffffff166101c88285858080601f016020809104026020016040519081016040528093929190818152602001838380828437600081840152601f19601f8201169050808301925050505050505061063d565b73ffffffffffffffffffffffffffffffffffffffff161461021e576040517f08c379a000000000000000000000000000000000000000000000000000000000815260040161021590610b1e565b60405180910390fd5b60001515600160008973ffffffffffffffffffffffffffffffffffffffff1673ffffffffffffffffffffffffffffffffffffffff168152602001908152602001600020600086815260200190815260200160002060009054906101000a900460ff161515146102c2576040517f08c379a00000000000000000000000000000000000000000000000000000000081526004016102b990610b8a565b60405180910390fd5b60018060008973ffffffffffffffffffffffffffffffffffffffff1673ffffffffffffffffffffffffffffffffffffffff168152602001908152602001600020600086815260200190815260200160002060006101000a81548160ff02191690831515021790555060008054906101000a900473ffffffffffffffffffffffffffffffffffffffff1673ffffffffffffffffffffffffffffffffffffffff1663eef892aa87876040518363ffffffff1660e01b8152600401610385929190610bc8565b600060405180830381600087803b15801561039f57600080fd5b505af11580156103b3573d6000803e3d6000fd5b505050506001808111156103ca576103c9610bf1565b5b7faa13b65da58a8db89cdecf4073c22dc25a1c6e9a30293f63a34f98929196fd88888888428989896040516104059796959493929190610c7e565b60405180910390a250505050505050565b60001515600160003373ffffffffffffffffffffffffffffffffffffffff1673ffffffffffffffffffffffffffffffffffffffff168152602001908152602001600020600085815260200190815260200160002060009054906101000a900460ff161515146104ba576040517f08c379a00000000000000000000000000000000000000000000000000000000081526004016104b190610b8a565b60405180910390fd5b60018060003373ffffffffffffffffffffffffffffffffffffffff1673ffffffffffffffffffffffffffffffffffffffff168152602001908152602001600020600085815260200190815260200160002060006101000a81548160ff02191690831515021790555060008054906101000a900473ffffffffffffffffffffffffffffffffffffffff1673ffffffffffffffffffffffffffffffffffffffff1663f88d7f3133866040518363ffffffff1660e01b815260040161057d929190610bc8565b600060405180830381600087803b15801561059757600080fd5b505af11580156105ab573d6000803e3d6000fd5b50505050600060018111156105c3576105c2610bf1565b5b7faa13b65da58a8db89cdecf4073c22dc25a1c6e9a30293f63a34f98929196fd88338787428888886040516105fe9796959493929190610c7e565b60405180910390a25050505050565b6000816040516020016106209190610d6a565b604051602081830303815290604052805190602001209050919050565b60008060008061064c856106b2565b8093508194508295505050506001868484846040516000815260200160405260405161067b9493929190610dbb565b6020604051602081039080840390855afa15801561069d573d6000803e3d6000fd5b50505060206040510351935050505092915050565b600080600060418451146106c557600080fd5b60008060006020870151925060408701519150606087015160001a90508083839550955095505050509193909250565b600073ffffffffffffffffffffffffffffffffffffffff82169050919050565b6000819050919050565b600061073a610735610730846106f5565b610715565b6106f5565b9050919050565b600061074c8261071f565b9050919050565b600061075e82610741565b9050919050565b61076e81610753565b82525050565b60006020820190506107896000830184610765565b92915050565b600080fd5b600080fd5b60006107a4826106f5565b9050919050565b6107b481610799565b81146107bf57600080fd5b50565b6000813590506107d1816107ab565b92915050565b6000819050919050565b6107ea816107d7565b81146107f557600080fd5b50565b600081359050610807816107e1565b92915050565b600080604083850312156108245761082361078f565b5b6000610832858286016107c2565b9250506020610843858286016107f8565b9150509250929050565b60008115159050919050565b6108628161084d565b82525050565b600060208201905061087d6000830184610859565b92915050565b600080fd5b600080fd5b600080fd5b60008083601f8401126108a8576108a7610883565b5b8235905067ffffffffffffffff8111156108c5576108c4610888565b5b6020830191508360018202830111156108e1576108e061088d565b5b9250929050565b60008060008060008060a087890312156109055761090461078f565b5b600061091389828a016107c2565b965050602061092489828a016107c2565b955050604061093589828a016107f8565b945050606061094689828a016107f8565b935050608087013567ffffffffffffffff81111561096757610966610794565b5b61097389828a01610892565b92509250509295509295509295565b60008060008060006080868803121561099e5761099d61078f565b5b60006109ac888289016107c2565b95505060206109bd888289016107f8565b94505060406109ce888289016107f8565b935050606086013567ffffffffffffffff8111156109ef576109ee610794565b5b6109fb88828901610892565b92509250509295509295909350565b60008160601b9050919050565b6000610a2282610a0a565b9050919050565b6000610a3482610a17565b9050919050565b610a4c610a4782610799565b610a29565b82525050565b6000819050919050565b610a6d610a68826107d7565b610a52565b82525050565b6000610a7f8287610a3b565b601482019150610a8f8286610a3b565b601482019150610a9f8285610a5c565b602082019150610aaf8284610a5c565b60208201915081905095945050505050565b600082825260208201905092915050565b7f77726f6e67207369676e61747572650000000000000000000000000000000000600082015250565b6000610b08600f83610ac1565b9150610b1382610ad2565b602082019050919050565b60006020820190508181036000830152610b3781610afb565b9050919050565b7f7472616e7366657220616c72656164792070726f636573736564000000000000600082015250565b6000610b74601a83610ac1565b9150610b7f82610b3e565b602082019050919050565b60006020820190508181036000830152610ba381610b67565b9050919050565b610bb381610799565b82525050565b610bc2816107d7565b82525050565b6000604082019050610bdd6000830185610baa565b610bea6020830184610bb9565b9392505050565b7f4e487b7100000000000000000000000000000000000000000000000000000000600052602160045260246000fd5b600082825260208201905092915050565b82818337600083830152505050565b6000601f19601f8301169050919050565b6000610c5d8385610c20565b9350610c6a838584610c31565b610c7383610c40565b840190509392505050565b600060c082019050610c93600083018a610baa565b610ca06020830189610baa565b610cad6040830188610bb9565b610cba6060830187610bb9565b610cc76080830186610bb9565b81810360a0830152610cda818486610c51565b905098975050505050505050565b600081905092915050565b7f19457468657265756d205369676e6564204d6573736167653a0a333200000000600082015250565b6000610d29601c83610ce8565b9150610d3482610cf3565b601c82019050919050565b6000819050919050565b6000819050919050565b610d64610d5f82610d3f565b610d49565b82525050565b6000610d7582610d1c565b9150610d818284610d53565b60208201915081905092915050565b610d9981610d3f565b82525050565b600060ff82169050919050565b610db581610d9f565b82525050565b6000608082019050610dd06000830187610d90565b610ddd6020830186610dac565b610dea6040830185610d90565b610df76060830184610d90565b9594505050505056fea264697066735822122092b91352eccf76f9817f2b358c9411a1a654f16727338d8e6bfd57efc34535bb64736f6c634300080d0033",
  "immutableReferences": {},
  "source": "// SPDX-License-Identifier: MIT\r\npragma solidity ^0.8.0;\r\n\r\nimport \"@openzeppelin/contracts/token/ERC20/IERC20.sol\";\r\nimport \"./IToken.sol\";\r\n\r\ncontract BridgeBase {\r\n    // Public variable to store the bridgetoken contract instance\r\n    IToken public bridgetoken;\r\n\r\n    // Mapping to keep track of processed nonces for each sender address\r\n    mapping(address => mapping(uint256 => bool)) public processedNonces;\r\n\r\n    // Enum to store the step of transfer process\r\n    enum TransferStep {\r\n        Burn,\r\n        Mint\r\n    }\r\n\r\n    // Event to keep track of transfer process\r\n    event TokenTransfer(\r\n        address from,\r\n        address to,\r\n        uint256 amount,\r\n        uint256 date,\r\n        uint256 nonce,\r\n        bytes signature,\r\n        TransferStep indexed step\r\n    );\r\n\r\n    // Constructor to initialize the token contract instance\r\n    constructor(address _token) {\r\n        // Assign the token contract address to the public bridgetoken variable\r\n        bridgetoken = IToken(_token);\r\n    }\r\n\r\n    // Function to allow token burn\r\n    function tokenBurn(\r\n        address to,\r\n        uint256 amount,\r\n        uint256 nonce,\r\n        bytes calldata signature\r\n    ) external {\r\n        // Check if the nonce has already been processed\r\n        require(\r\n            processedNonces[msg.sender][nonce] == false,\r\n            \"transfer already processed\"\r\n        );\r\n        // Mark the nonce as processed\r\n        processedNonces[msg.sender][nonce] = true;\r\n        // Burn the specified amount of tokens from the sender\r\n        bridgetoken.tokenBurn(msg.sender, amount);\r\n        // Emit the Transfer event with transfer details and step\r\n        emit TokenTransfer(\r\n            msg.sender,\r\n            to,\r\n            amount,\r\n            block.timestamp,\r\n            nonce,\r\n            signature,\r\n            TransferStep.Burn\r\n        );\r\n    }\r\n\r\n    // Function to allow token mint\r\n    function tokenMint(\r\n        address from,\r\n        address to,\r\n        uint256 amount,\r\n        uint256 nonce,\r\n        bytes calldata signature\r\n    ) external {\r\n        // Calculate the hash of the message to be signed\r\n        bytes32 message = prefixed(\r\n            keccak256(abi.encodePacked(from, to, amount, nonce))\r\n        );\r\n        // Check if the signature matches the hash of the message\r\n        require(recoverSigner(message, signature) == from, \"wrong signature\");\r\n        // Check if the nonce has already been processed\r\n        require(\r\n            processedNonces[from][nonce] == false,\r\n            \"transfer already processed\"\r\n        );\r\n        // Mark the nonce as processed\r\n        processedNonces[from][nonce] = true;\r\n        // Mint the specified amount of tokens to the receiver\r\n        bridgetoken.tokenMint(to, amount);\r\n        // Emit the Transfer event with transfer details and step\r\n        emit TokenTransfer(\r\n            from,\r\n            to,\r\n            amount,\r\n            block.timestamp,\r\n            nonce,\r\n            signature,\r\n            TransferStep.Mint\r\n        );\r\n    }\r\n\r\n    // Utility function to calculate the hash of the signed message\r\n    function prefixed(bytes32 hash) internal pure returns (bytes32) {\r\n        // Calculate the hash of the message with the Ethereum signed message prefix\r\n        return keccak256(abi\r\n.encodePacked(\"\\x19Ethereum Signed Message:\\n32\", hash));\r\n}\r\nfunction recoverSigner(bytes32 message, bytes memory sig) internal pure returns (address) {\r\n    // Declare variables to hold the values of v, r and s in the signature\r\n    uint8 v;\r\n    bytes32 r;\r\n    bytes32 s;\r\n\r\n    // Split the signature into its components (v, r, s)\r\n    (v, r, s) = splitSignature(sig);\r\n\r\n    // Recover the address that signed the message\r\n    return ecrecover(message, v, r, s);\r\n}\r\n\r\nfunction splitSignature(bytes memory sig) internal pure returns (uint8, bytes32, bytes32) {\r\n    // Ensure that the length of the signature is 65 bytes\r\n    require(sig.length == 65);\r\n\r\n    // Declare variables to hold the values of r, s, and v in the signature\r\n    bytes32 r;\r\n    bytes32 s;\r\n    uint8 v;\r\n\r\n    // Extract the values of r, s, and v from the signature\r\n    assembly {\r\n        r := mload(add(sig, 32))\r\n        s := mload(add(sig, 64))\r\n        v := byte(0, mload(add(sig, 96)))\r\n    }\r\n\r\n    // Return the extracted values (v, r, s)\r\n    return (v, r, s);\r\n}\r\n}",
  "sourcePath": "D:\\AU\\Crosschain bridge\\contracts\\BridgeBase.sol",
  "compiler": {
    "name": "solc",
    "version": "0.8.13+commit.abaa5c0e.Emscripten.clang"
  },
  "schemaVersion": "3.4.16",
  "updatedAt": "2024-05-05T21:55:20.886Z",
  "devdoc": {
    "kind": "dev",
    "methods": {},
    "version": 1
  },
  "userdoc": {
    "kind": "user",
    "methods": {},
    "version": 1
  }
}