{
  "contractName": "TokenEthereum",
  "abi": [
    {
      "inputs": [],
      "stateMutability": "nonpayable",
      "type": "constructor"
    },
    {
      "anonymous": false,
      "inputs": [
        {
          "indexed": true,
          "internalType": "address",
          "name": "owner",
          "type": "address"
        },
        {
          "indexed": true,
          "internalType": "address",
          "name": "spender",
          "type": "address"
        },
        {
          "indexed": false,
          "internalType": "uint256",
          "name": "value",
          "type": "uint256"
        }
      ],
      "name": "Approval",
      "type": "event"
    },
    {
      "anonymous": false,
      "inputs": [
        {
          "indexed": true,
          "internalType": "address",
          "name": "from",
          "type": "address"
        },
        {
          "indexed": true,
          "internalType": "address",
          "name": "to",
          "type": "address"
        },
        {
          "indexed": false,
          "internalType": "uint256",
          "name": "value",
          "type": "uint256"
        }
      ],
      "name": "Transfer",
      "type": "event"
    },
    {
      "inputs": [],
      "name": "admin",
      "outputs": [
        {
          "internalType": "address",
          "name": "",
          "type": "address"
        }
      ],
      "stateMutability": "view",
      "type": "function"
    },
    {
      "inputs": [
        {
          "internalType": "address",
          "name": "owner",
          "type": "address"
        },
        {
          "internalType": "address",
          "name": "spender",
          "type": "address"
        }
      ],
      "name": "allowance",
      "outputs": [
        {
          "internalType": "uint256",
          "name": "",
          "type": "uint256"
        }
      ],
      "stateMutability": "view",
      "type": "function"
    },
    {
      "inputs": [
        {
          "internalType": "address",
          "name": "spender",
          "type": "address"
        },
        {
          "internalType": "uint256",
          "name": "amount",
          "type": "uint256"
        }
      ],
      "name": "approve",
      "outputs": [
        {
          "internalType": "bool",
          "name": "",
          "type": "bool"
        }
      ],
      "stateMutability": "nonpayable",
      "type": "function"
    },
    {
      "inputs": [
        {
          "internalType": "address",
          "name": "account",
          "type": "address"
        }
      ],
      "name": "balanceOf",
      "outputs": [
        {
          "internalType": "uint256",
          "name": "",
          "type": "uint256"
        }
      ],
      "stateMutability": "view",
      "type": "function"
    },
    {
      "inputs": [],
      "name": "decimals",
      "outputs": [
        {
          "internalType": "uint8",
          "name": "",
          "type": "uint8"
        }
      ],
      "stateMutability": "view",
      "type": "function"
    },
    {
      "inputs": [
        {
          "internalType": "address",
          "name": "spender",
          "type": "address"
        },
        {
          "internalType": "uint256",
          "name": "subtractedValue",
          "type": "uint256"
        }
      ],
      "name": "decreaseAllowance",
      "outputs": [
        {
          "internalType": "bool",
          "name": "",
          "type": "bool"
        }
      ],
      "stateMutability": "nonpayable",
      "type": "function"
    },
    {
      "inputs": [
        {
          "internalType": "address",
          "name": "spender",
          "type": "address"
        },
        {
          "internalType": "uint256",
          "name": "addedValue",
          "type": "uint256"
        }
      ],
      "name": "increaseAllowance",
      "outputs": [
        {
          "internalType": "bool",
          "name": "",
          "type": "bool"
        }
      ],
      "stateMutability": "nonpayable",
      "type": "function"
    },
    {
      "inputs": [],
      "name": "name",
      "outputs": [
        {
          "internalType": "string",
          "name": "",
          "type": "string"
        }
      ],
      "stateMutability": "view",
      "type": "function"
    },
    {
      "inputs": [],
      "name": "symbol",
      "outputs": [
        {
          "internalType": "string",
          "name": "",
          "type": "string"
        }
      ],
      "stateMutability": "view",
      "type": "function"
    },
    {
      "inputs": [
        {
          "internalType": "address",
          "name": "owner",
          "type": "address"
        },
        {
          "internalType": "uint256",
          "name": "amount",
          "type": "uint256"
        }
      ],
      "name": "tokenBurn",
      "outputs": [],
      "stateMutability": "nonpayable",
      "type": "function"
    },
    {
      "inputs": [
        {
          "internalType": "address",
          "name": "to",
          "type": "address"
        },
        {
          "internalType": "uint256",
          "name": "amount",
          "type": "uint256"
        }
      ],
      "name": "tokenMint",
      "outputs": [],
      "stateMutability": "nonpayable",
      "type": "function"
    },
    {
      "inputs": [],
      "name": "totalSupply",
      "outputs": [
        {
          "internalType": "uint256",
          "name": "",
          "type": "uint256"
        }
      ],
      "stateMutability": "view",
      "type": "function"
    },
    {
      "inputs": [
        {
          "internalType": "address",
          "name": "to",
          "type": "address"
        },
        {
          "internalType": "uint256",
          "name": "amount",
          "type": "uint256"
        }
      ],
      "name": "transfer",
      "outputs": [
        {
          "internalType": "bool",
          "name": "",
          "type": "bool"
        }
      ],
      "stateMutability": "nonpayable",
      "type": "function"
    },
    {
      "inputs": [
        {
          "internalType": "address",
          "name": "from",
          "type": "address"
        },
        {
          "internalType": "address",
          "name": "to",
          "type": "address"
        },
        {
          "internalType": "uint256",
          "name": "amount",
          "type": "uint256"
        }
      ],
      "name": "transferFrom",
      "outputs": [
        {
          "internalType": "bool",
          "name": "",
          "type": "bool"
        }
      ],
      "stateMutability": "nonpayable",
      "type": "function"
    },
    {
      "inputs": [
        {
          "internalType": "address",
          "name": "newAdmin",
          "type": "address"
        }
      ],
      "name": "updateAdmin",
      "outputs": [],
      "stateMutability": "nonpayable",
      "type": "function"
    }
  ],
  "bytecode": "0x60806040523480156200001157600080fd5b506040518060400160405280600981526020017f45544820546f6b656e00000000000000000000000000000000000000000000008152506040518060400160405280600381526020017f45544b00000000000000000000000000000000000000000000000000000000008152508181816003908051906020019062000098929190620000fd565b508060049080519060200190620000b1929190620000fd565b50505033600560006101000a81548173ffffffffffffffffffffffffffffffffffffffff021916908373ffffffffffffffffffffffffffffffffffffffff160217905550505062000211565b8280546200010b90620001dc565b90600052602060002090601f0160209004810192826200012f57600085556200017b565b82601f106200014a57805160ff19168380011785556200017b565b828001600101855582156200017b579182015b828111156200017a5782518255916020019190600101906200015d565b5b5090506200018a91906200018e565b5090565b5b80821115620001a95760008160009055506001016200018f565b5090565b7f4e487b7100000000000000000000000000000000000000000000000000000000600052602260045260246000fd5b60006002820490506001821680620001f557607f821691505b6020821081036200020b576200020a620001ad565b5b50919050565b611a9780620002216000396000f3fe608060405234801561001057600080fd5b50600436106100f55760003560e01c806395d89b4111610097578063e2f273bd11610066578063e2f273bd146102c2578063eef892aa146102de578063f851a440146102fa578063f88d7f3114610318576100f5565b806395d89b4114610214578063a457c2d714610232578063a9059cbb14610262578063dd62ed3e14610292576100f5565b806323b872dd116100d357806323b872dd14610166578063313ce5671461019657806339509351146101b457806370a08231146101e4576100f5565b806306fdde03146100fa578063095ea7b31461011857806318160ddd14610148575b600080fd5b610102610334565b60405161010f919061112c565b60405180910390f35b610132600480360381019061012d91906111e7565b6103c6565b60405161013f9190611242565b60405180910390f35b6101506103e9565b60405161015d919061126c565b60405180910390f35b610180600480360381019061017b9190611287565b6103f3565b60405161018d9190611242565b60405180910390f35b61019e610422565b6040516101ab91906112f6565b60405180910390f35b6101ce60048036038101906101c991906111e7565b61042b565b6040516101db9190611242565b60405180910390f35b6101fe60048036038101906101f99190611311565b610462565b60405161020b919061126c565b60405180910390f35b61021c6104aa565b604051610229919061112c565b60405180910390f35b61024c600480360381019061024791906111e7565b61053c565b6040516102599190611242565b60405180910390f35b61027c600480360381019061027791906111e7565b6105b3565b6040516102899190611242565b60405180910390f35b6102ac60048036038101906102a7919061133e565b6105d6565b6040516102b9919061126c565b60405180910390f35b6102dc60048036038101906102d79190611311565b61065d565b005b6102f860048036038101906102f391906111e7565b610731565b005b6103026107cf565b60405161030f919061138d565b60405180910390f35b610332600480360381019061032d91906111e7565b6107f5565b005b606060038054610343906113d7565b80601f016020809104026020016040519081016040528092919081815260200182805461036f906113d7565b80156103bc5780601f10610391576101008083540402835291602001916103bc565b820191906000526020600020905b81548152906001019060200180831161039f57829003601f168201915b5050505050905090565b6000806103d1610893565b90506103de81858561089b565b600191505092915050565b6000600254905090565b6000806103fe610893565b905061040b858285610a64565b610416858585610af0565b60019150509392505050565b60006012905090565b600080610436610893565b905061045781858561044885896105d6565b6104529190611437565b61089b565b600191505092915050565b60008060008373ffffffffffffffffffffffffffffffffffffffff1673ffffffffffffffffffffffffffffffffffffffff168152602001908152602001600020549050919050565b6060600480546104b9906113d7565b80601f01602080910402602001604051908101604052809291908181526020018280546104e5906113d7565b80156105325780601f1061050757610100808354040283529160200191610532565b820191906000526020600020905b81548152906001019060200180831161051557829003601f168201915b5050505050905090565b600080610547610893565b9050600061055582866105d6565b90508381101561059a576040517f08c379a0000000000000000000000000000000000000000000000000000000008152600401610591906114ff565b60405180910390fd5b6105a7828686840361089b565b60019250505092915050565b6000806105be610893565b90506105cb818585610af0565b600191505092915050565b6000600160008473ffffffffffffffffffffffffffffffffffffffff1673ffffffffffffffffffffffffffffffffffffffff16815260200190815260200160002060008373ffffffffffffffffffffffffffffffffffffffff1673ffffffffffffffffffffffffffffffffffffffff16815260200190815260200160002054905092915050565b600560009054906101000a900473ffffffffffffffffffffffffffffffffffffffff1673ffffffffffffffffffffffffffffffffffffffff163373ffffffffffffffffffffffffffffffffffffffff16146106ed576040517f08c379a00000000000000000000000000000000000000000000000000000000081526004016106e49061156b565b60405180910390fd5b80600560006101000a81548173ffffffffffffffffffffffffffffffffffffffff021916908373ffffffffffffffffffffffffffffffffffffffff16021790555050565b600560009054906101000a900473ffffffffffffffffffffffffffffffffffffffff1673ffffffffffffffffffffffffffffffffffffffff163373ffffffffffffffffffffffffffffffffffffffff16146107c1576040517f08c379a00000000000000000000000000000000000000000000000000000000081526004016107b89061156b565b60405180910390fd5b6107cb8282610d66565b5050565b600560009054906101000a900473ffffffffffffffffffffffffffffffffffffffff1681565b600560009054906101000a900473ffffffffffffffffffffffffffffffffffffffff1673ffffffffffffffffffffffffffffffffffffffff163373ffffffffffffffffffffffffffffffffffffffff1614610885576040517f08c379a000000000000000000000000000000000000000000000000000000000815260040161087c9061156b565b60405180910390fd5b61088f8282610ebc565b5050565b600033905090565b600073ffffffffffffffffffffffffffffffffffffffff168373ffffffffffffffffffffffffffffffffffffffff160361090a576040517f08c379a0000000000000000000000000000000000000000000000000000000008152600401610901906115fd565b60405180910390fd5b600073ffffffffffffffffffffffffffffffffffffffff168273ffffffffffffffffffffffffffffffffffffffff1603610979576040517f08c379a00000000000000000000000000000000000000000000000000000000081526004016109709061168f565b60405180910390fd5b80600160008573ffffffffffffffffffffffffffffffffffffffff1673ffffffffffffffffffffffffffffffffffffffff16815260200190815260200160002060008473ffffffffffffffffffffffffffffffffffffffff1673ffffffffffffffffffffffffffffffffffffffff168152602001908152602001600020819055508173ffffffffffffffffffffffffffffffffffffffff168373ffffffffffffffffffffffffffffffffffffffff167f8c5be1e5ebec7d5bd14f71427d1e84f3dd0314c0f7b2291e5b200ac8c7c3b92583604051610a57919061126c565b60405180910390a3505050565b6000610a7084846105d6565b90507fffffffffffffffffffffffffffffffffffffffffffffffffffffffffffffffff8114610aea5781811015610adc576040517f08c379a0000000000000000000000000000000000000000000000000000000008152600401610ad3906116fb565b60405180910390fd5b610ae9848484840361089b565b5b50505050565b600073ffffffffffffffffffffffffffffffffffffffff168373ffffffffffffffffffffffffffffffffffffffff1603610b5f576040517f08c379a0000000000000000000000000000000000000000000000000000000008152600401610b569061178d565b60405180910390fd5b600073ffffffffffffffffffffffffffffffffffffffff168273ffffffffffffffffffffffffffffffffffffffff1603610bce576040517f08c379a0000000000000000000000000000000000000000000000000000000008152600401610bc59061181f565b60405180910390fd5b610bd9838383611089565b60008060008573ffffffffffffffffffffffffffffffffffffffff1673ffffffffffffffffffffffffffffffffffffffff16815260200190815260200160002054905081811015610c5f576040517f08c379a0000000000000000000000000000000000000000000000000000000008152600401610c56906118b1565b60405180910390fd5b8181036000808673ffffffffffffffffffffffffffffffffffffffff1673ffffffffffffffffffffffffffffffffffffffff16815260200190815260200160002081905550816000808573ffffffffffffffffffffffffffffffffffffffff1673ffffffffffffffffffffffffffffffffffffffff168152602001908152602001600020600082825401925050819055508273ffffffffffffffffffffffffffffffffffffffff168473ffffffffffffffffffffffffffffffffffffffff167fddf252ad1be2c89b69c2b068fc378daa952ba7f163c4a11628f55a4df523b3ef84604051610d4d919061126c565b60405180910390a3610d6084848461108e565b50505050565b600073ffffffffffffffffffffffffffffffffffffffff168273ffffffffffffffffffffffffffffffffffffffff1603610dd5576040517f08c379a0000000000000000000000000000000000000000000000000000000008152600401610dcc9061191d565b60405180910390fd5b610de160008383611089565b8060026000828254610df39190611437565b92505081905550806000808473ffffffffffffffffffffffffffffffffffffffff1673ffffffffffffffffffffffffffffffffffffffff168152602001908152602001600020600082825401925050819055508173ffffffffffffffffffffffffffffffffffffffff16600073ffffffffffffffffffffffffffffffffffffffff167fddf252ad1be2c89b69c2b068fc378daa952ba7f163c4a11628f55a4df523b3ef83604051610ea4919061126c565b60405180910390a3610eb86000838361108e565b5050565b600073ffffffffffffffffffffffffffffffffffffffff168273ffffffffffffffffffffffffffffffffffffffff1603610f2b576040517f08c379a0000000000000000000000000000000000000000000000000000000008152600401610f22906119af565b60405180910390fd5b610f3782600083611089565b60008060008473ffffffffffffffffffffffffffffffffffffffff1673ffffffffffffffffffffffffffffffffffffffff16815260200190815260200160002054905081811015610fbd576040517f08c379a0000000000000000000000000000000000000000000000000000000008152600401610fb490611a41565b60405180910390fd5b8181036000808573ffffffffffffffffffffffffffffffffffffffff1673ffffffffffffffffffffffffffffffffffffffff1681526020019081526020016000208190555081600260008282540392505081905550600073ffffffffffffffffffffffffffffffffffffffff168373ffffffffffffffffffffffffffffffffffffffff167fddf252ad1be2c89b69c2b068fc378daa952ba7f163c4a11628f55a4df523b3ef84604051611070919061126c565b60405180910390a36110848360008461108e565b505050565b505050565b505050565b600081519050919050565b600082825260208201905092915050565b60005b838110156110cd5780820151818401526020810190506110b2565b838111156110dc576000848401525b50505050565b6000601f19601f8301169050919050565b60006110fe82611093565b611108818561109e565b93506111188185602086016110af565b611121816110e2565b840191505092915050565b6000602082019050818103600083015261114681846110f3565b905092915050565b600080fd5b600073ffffffffffffffffffffffffffffffffffffffff82169050919050565b600061117e82611153565b9050919050565b61118e81611173565b811461119957600080fd5b50565b6000813590506111ab81611185565b92915050565b6000819050919050565b6111c4816111b1565b81146111cf57600080fd5b50565b6000813590506111e1816111bb565b92915050565b600080604083850312156111fe576111fd61114e565b5b600061120c8582860161119c565b925050602061121d858286016111d2565b9150509250929050565b60008115159050919050565b61123c81611227565b82525050565b60006020820190506112576000830184611233565b92915050565b611266816111b1565b82525050565b6000602082019050611281600083018461125d565b92915050565b6000806000606084860312156112a05761129f61114e565b5b60006112ae8682870161119c565b93505060206112bf8682870161119c565b92505060406112d0868287016111d2565b9150509250925092565b600060ff82169050919050565b6112f0816112da565b82525050565b600060208201905061130b60008301846112e7565b92915050565b6000602082840312156113275761132661114e565b5b60006113358482850161119c565b91505092915050565b600080604083850312156113555761135461114e565b5b60006113638582860161119c565b92505060206113748582860161119c565b9150509250929050565b61138781611173565b82525050565b60006020820190506113a2600083018461137e565b92915050565b7f4e487b7100000000000000000000000000000000000000000000000000000000600052602260045260246000fd5b600060028204905060018216806113ef57607f821691505b602082108103611402576114016113a8565b5b50919050565b7f4e487b7100000000000000000000000000000000000000000000000000000000600052601160045260246000fd5b6000611442826111b1565b915061144d836111b1565b9250827fffffffffffffffffffffffffffffffffffffffffffffffffffffffffffffffff0382111561148257611481611408565b5b828201905092915050565b7f45524332303a2064656372656173656420616c6c6f77616e63652062656c6f7760008201527f207a65726f000000000000000000000000000000000000000000000000000000602082015250565b60006114e960258361109e565b91506114f48261148d565b604082019050919050565b60006020820190508181036000830152611518816114dc565b9050919050565b7f6f6e6c792061646d696e00000000000000000000000000000000000000000000600082015250565b6000611555600a8361109e565b91506115608261151f565b602082019050919050565b6000602082019050818103600083015261158481611548565b9050919050565b7f45524332303a20617070726f76652066726f6d20746865207a65726f2061646460008201527f7265737300000000000000000000000000000000000000000000000000000000602082015250565b60006115e760248361109e565b91506115f28261158b565b604082019050919050565b60006020820190508181036000830152611616816115da565b9050919050565b7f45524332303a20617070726f766520746f20746865207a65726f20616464726560008201527f7373000000000000000000000000000000000000000000000000000000000000602082015250565b600061167960228361109e565b91506116848261161d565b604082019050919050565b600060208201905081810360008301526116a88161166c565b9050919050565b7f45524332303a20696e73756666696369656e7420616c6c6f77616e6365000000600082015250565b60006116e5601d8361109e565b91506116f0826116af565b602082019050919050565b60006020820190508181036000830152611714816116d8565b9050919050565b7f45524332303a207472616e736665722066726f6d20746865207a65726f20616460008201527f6472657373000000000000000000000000000000000000000000000000000000602082015250565b600061177760258361109e565b91506117828261171b565b604082019050919050565b600060208201905081810360008301526117a68161176a565b9050919050565b7f45524332303a207472616e7366657220746f20746865207a65726f206164647260008201527f6573730000000000000000000000000000000000000000000000000000000000602082015250565b600061180960238361109e565b9150611814826117ad565b604082019050919050565b60006020820190508181036000830152611838816117fc565b9050919050565b7f45524332303a207472616e7366657220616d6f756e742065786365656473206260008201527f616c616e63650000000000000000000000000000000000000000000000000000602082015250565b600061189b60268361109e565b91506118a68261183f565b604082019050919050565b600060208201905081810360008301526118ca8161188e565b9050919050565b7f45524332303a206d696e7420746f20746865207a65726f206164647265737300600082015250565b6000611907601f8361109e565b9150611912826118d1565b602082019050919050565b60006020820190508181036000830152611936816118fa565b9050919050565b7f45524332303a206275726e2066726f6d20746865207a65726f2061646472657360008201527f7300000000000000000000000000000000000000000000000000000000000000602082015250565b600061199960218361109e565b91506119a48261193d565b604082019050919050565b600060208201905081810360008301526119c88161198c565b9050919050565b7f45524332303a206275726e20616d6f756e7420657863656564732062616c616e60008201527f6365000000000000000000000000000000000000000000000000000000000000602082015250565b6000611a2b60228361109e565b9150611a36826119cf565b604082019050919050565b60006020820190508181036000830152611a5a81611a1e565b905091905056fea2646970667358221220fc11af25fa5a0c70823fe165c787a63c0fac75977693510055876ab3c5b3ea0a64736f6c634300080d0033",
  "immutableReferences": {},
  "source": "// SPDX-License-Identifier: MIT\r\npragma solidity ^0.8.0;\r\n\r\nimport './TokenBase.sol';\r\n\r\ncontract TokenEthereum is TokenBase {\r\n  constructor() TokenBase('ETH Token', 'ETK') {}\r\n}\r\n",
  "sourcePath": "D:\\AU\\Crosschain bridge\\contracts\\TokenEthereum.sol",
  "compiler": {
    "name": "solc",
    "version": "0.8.13+commit.abaa5c0e.Emscripten.clang"
  },
  "schemaVersion": "3.4.16",
  "updatedAt": "2024-05-05T21:56:30.091Z",
  "networkType": "ethereum",
  "devdoc": {
    "kind": "dev",
    "methods": {
      "allowance(address,address)": {
        "details": "See {IERC20-allowance}."
      },
      "approve(address,uint256)": {
        "details": "See {IERC20-approve}. NOTE: If `amount` is the maximum `uint256`, the allowance is not updated on `transferFrom`. This is semantically equivalent to an infinite approval. Requirements: - `spender` cannot be the zero address."
      },
      "balanceOf(address)": {
        "details": "See {IERC20-balanceOf}."
      },
      "decimals()": {
        "details": "Returns the number of decimals used to get its user representation. For example, if `decimals` equals `2`, a balance of `505` tokens should be displayed to a user as `5.05` (`505 / 10 ** 2`). Tokens usually opt for a value of 18, imitating the relationship between Ether and Wei. This is the default value returned by this function, unless it's overridden. NOTE: This information is only used for _display_ purposes: it in no way affects any of the arithmetic of the contract, including {IERC20-balanceOf} and {IERC20-transfer}."
      },
      "decreaseAllowance(address,uint256)": {
        "details": "Atomically decreases the allowance granted to `spender` by the caller. This is an alternative to {approve} that can be used as a mitigation for problems described in {IERC20-approve}. Emits an {Approval} event indicating the updated allowance. Requirements: - `spender` cannot be the zero address. - `spender` must have allowance for the caller of at least `subtractedValue`."
      },
      "increaseAllowance(address,uint256)": {
        "details": "Atomically increases the allowance granted to `spender` by the caller. This is an alternative to {approve} that can be used as a mitigation for problems described in {IERC20-approve}. Emits an {Approval} event indicating the updated allowance. Requirements: - `spender` cannot be the zero address."
      },
      "name()": {
        "details": "Returns the name of the token."
      },
      "symbol()": {
        "details": "Returns the symbol of the token, usually a shorter version of the name."
      },
      "totalSupply()": {
        "details": "See {IERC20-totalSupply}."
      },
      "transfer(address,uint256)": {
        "details": "See {IERC20-transfer}. Requirements: - `to` cannot be the zero address. - the caller must have a balance of at least `amount`."
      },
      "transferFrom(address,address,uint256)": {
        "details": "See {IERC20-transferFrom}. Emits an {Approval} event indicating the updated allowance. This is not required by the EIP. See the note at the beginning of {ERC20}. NOTE: Does not update the allowance if the current allowance is the maximum `uint256`. Requirements: - `from` and `to` cannot be the zero address. - `from` must have a balance of at least `amount`. - the caller must have allowance for ``from``'s tokens of at least `amount`."
      }
    },
    "version": 1
  },
  "userdoc": {
    "kind": "user",
    "methods": {},
    "version": 1
  }
}